{
	"contracts/FundMe.sol": {
		"FundMe": {
			"abi": [
				{
					"inputs": [],
					"stateMutability": "nonpayable",
					"type": "constructor"
				},
				{
					"inputs": [
						{
							"internalType": "address",
							"name": "",
							"type": "address"
						}
					],
					"name": "addressToAmountFunded",
					"outputs": [
						{
							"internalType": "uint256",
							"name": "",
							"type": "uint256"
						}
					],
					"stateMutability": "view",
					"type": "function"
				},
				{
					"inputs": [],
					"name": "fund",
					"outputs": [],
					"stateMutability": "payable",
					"type": "function"
				},
				{
					"inputs": [
						{
							"internalType": "uint256",
							"name": "",
							"type": "uint256"
						}
					],
					"name": "funders",
					"outputs": [
						{
							"internalType": "address",
							"name": "",
							"type": "address"
						}
					],
					"stateMutability": "view",
					"type": "function"
				},
				{
					"inputs": [
						{
							"internalType": "uint256",
							"name": "ethPrice",
							"type": "uint256"
						}
					],
					"name": "getConvertionRate",
					"outputs": [
						{
							"internalType": "uint256",
							"name": "",
							"type": "uint256"
						}
					],
					"stateMutability": "view",
					"type": "function"
				},
				{
					"inputs": [],
					"name": "getPrice",
					"outputs": [
						{
							"internalType": "uint256",
							"name": "",
							"type": "uint256"
						}
					],
					"stateMutability": "view",
					"type": "function"
				},
				{
					"inputs": [],
					"name": "getVersion",
					"outputs": [
						{
							"internalType": "uint256",
							"name": "",
							"type": "uint256"
						}
					],
					"stateMutability": "view",
					"type": "function"
				},
				{
					"inputs": [],
					"name": "usd",
					"outputs": [
						{
							"internalType": "uint256",
							"name": "",
							"type": "uint256"
						}
					],
					"stateMutability": "view",
					"type": "function"
				}
			],
			"devdoc": {
				"kind": "dev",
				"methods": {},
				"version": 1
			},
			"evm": {
				"assembly": "    /* \"contracts/FundMe.sol\":171:1393  contract FundMe {... */\n  mstore(0x40, 0x80)\n    /* \"contracts/FundMe.sol\":214:217  230 */\n  0xe6\n    /* \"contracts/FundMe.sol\":193:217  uint256 public usd = 230 */\n  0x00\n  sstore\n    /* \"contracts/FundMe.sol\":361:490  constructor() {... */\n  callvalue\n  dup1\n  iszero\n  tag_1\n  jumpi\n  0x00\n  dup1\n  revert\ntag_1:\n  pop\n    /* \"contracts/FundMe.sol\":431:473  0x694AA1769357215DE4FAC081bf1f309aDC325306 */\n  0x694aa1769357215de4fac081bf1f309adc325306\n    /* \"contracts/FundMe.sol\":385:393  dataFeed */\n  0x01\n  0x00\n    /* \"contracts/FundMe.sol\":385:483  dataFeed = AggregatorV3Interface(... */\n  0x0100\n  exp\n  dup2\n  sload\n  dup2\n  0xffffffffffffffffffffffffffffffffffffffff\n  mul\n  not\n  and\n  swap1\n  dup4\n  0xffffffffffffffffffffffffffffffffffffffff\n  and\n  mul\n  or\n  swap1\n  sstore\n  pop\n    /* \"contracts/FundMe.sol\":171:1393  contract FundMe {... */\n  dataSize(sub_0)\n  dup1\n  dataOffset(sub_0)\n  0x00\n  codecopy\n  0x00\n  return\nstop\n\nsub_0: assembly {\n        /* \"contracts/FundMe.sol\":171:1393  contract FundMe {... */\n      mstore(0x40, 0x80)\n      jumpi(tag_1, lt(calldatasize, 0x04))\n      shr(0xe0, calldataload(0x00))\n      dup1\n      0x98d5fdca\n      gt\n      tag_9\n      jumpi\n      dup1\n      0x98d5fdca\n      eq\n      tag_5\n      jumpi\n      dup1\n      0xb60d4288\n      eq\n      tag_6\n      jumpi\n      dup1\n      0xd63a6ccd\n      eq\n      tag_7\n      jumpi\n      dup1\n      0xdc0d3dff\n      eq\n      tag_8\n      jumpi\n      jump(tag_1)\n    tag_9:\n      dup1\n      0x0d8e6e2c\n      eq\n      tag_2\n      jumpi\n      dup1\n      0x3e47d6f3\n      eq\n      tag_3\n      jumpi\n      dup1\n      0x3e8cdcda\n      eq\n      tag_4\n      jumpi\n    tag_1:\n      0x00\n      dup1\n      revert\n        /* \"contracts/FundMe.sol\":705:858  function getVersion() public view returns (uint256) {... */\n    tag_2:\n      callvalue\n      dup1\n      iszero\n      tag_10\n      jumpi\n      0x00\n      dup1\n      revert\n    tag_10:\n      pop\n      tag_11\n      tag_12\n      jump\t// in\n    tag_11:\n      mload(0x40)\n      tag_13\n      swap2\n      swap1\n      tag_14\n      jump\t// in\n    tag_13:\n      mload(0x40)\n      dup1\n      swap2\n      sub\n      swap1\n      return\n        /* \"contracts/FundMe.sol\":298:354  mapping(address => uint256) public addressToAmountFunded */\n    tag_3:\n      callvalue\n      dup1\n      iszero\n      tag_15\n      jumpi\n      0x00\n      dup1\n      revert\n    tag_15:\n      pop\n      tag_16\n      0x04\n      dup1\n      calldatasize\n      sub\n      dup2\n      add\n      swap1\n      tag_17\n      swap2\n      swap1\n      tag_18\n      jump\t// in\n    tag_17:\n      tag_19\n      jump\t// in\n    tag_16:\n      mload(0x40)\n      tag_20\n      swap2\n      swap1\n      tag_14\n      jump\t// in\n    tag_20:\n      mload(0x40)\n      dup1\n      swap2\n      sub\n      swap1\n      return\n        /* \"contracts/FundMe.sol\":1225:1391  function getConvertionRate(uint256 ethPrice) public view returns (uint256) {... */\n    tag_4:\n      callvalue\n      dup1\n      iszero\n      tag_21\n      jumpi\n      0x00\n      dup1\n      revert\n    tag_21:\n      pop\n      tag_22\n      0x04\n      dup1\n      calldatasize\n      sub\n      dup2\n      add\n      swap1\n      tag_23\n      swap2\n      swap1\n      tag_24\n      jump\t// in\n    tag_23:\n      tag_25\n      jump\t// in\n    tag_22:\n      mload(0x40)\n      tag_26\n      swap2\n      swap1\n      tag_14\n      jump\t// in\n    tag_26:\n      mload(0x40)\n      dup1\n      swap2\n      sub\n      swap1\n      return\n        /* \"contracts/FundMe.sol\":864:1219  function getPrice() public view returns (uint256) {... */\n    tag_5:\n      callvalue\n      dup1\n      iszero\n      tag_27\n      jumpi\n      0x00\n      dup1\n      revert\n    tag_27:\n      pop\n      tag_28\n      tag_29\n      jump\t// in\n    tag_28:\n      mload(0x40)\n      tag_30\n      swap2\n      swap1\n      tag_14\n      jump\t// in\n    tag_30:\n      mload(0x40)\n      dup1\n      swap2\n      sub\n      swap1\n      return\n        /* \"contracts/FundMe.sol\":496:699  function fund() public payable {... */\n    tag_6:\n      tag_31\n      tag_32\n      jump\t// in\n    tag_31:\n      stop\n        /* \"contracts/FundMe.sol\":193:217  uint256 public usd = 230 */\n    tag_7:\n      callvalue\n      dup1\n      iszero\n      tag_33\n      jumpi\n      0x00\n      dup1\n      revert\n    tag_33:\n      pop\n      tag_34\n      tag_35\n      jump\t// in\n    tag_34:\n      mload(0x40)\n      tag_36\n      swap2\n      swap1\n      tag_14\n      jump\t// in\n    tag_36:\n      mload(0x40)\n      dup1\n      swap2\n      sub\n      swap1\n      return\n        /* \"contracts/FundMe.sol\":268:292  address[] public funders */\n    tag_8:\n      callvalue\n      dup1\n      iszero\n      tag_37\n      jumpi\n      0x00\n      dup1\n      revert\n    tag_37:\n      pop\n      tag_38\n      0x04\n      dup1\n      calldatasize\n      sub\n      dup2\n      add\n      swap1\n      tag_39\n      swap2\n      swap1\n      tag_24\n      jump\t// in\n    tag_39:\n      tag_40\n      jump\t// in\n    tag_38:\n      mload(0x40)\n      tag_41\n      swap2\n      swap1\n      tag_42\n      jump\t// in\n    tag_41:\n      mload(0x40)\n      dup1\n      swap2\n      sub\n      swap1\n      return\n        /* \"contracts/FundMe.sol\":705:858  function getVersion() public view returns (uint256) {... */\n    tag_12:\n        /* \"contracts/FundMe.sol\":748:755  uint256 */\n      0x00\n        /* \"contracts/FundMe.sol\":767:801  AggregatorV3Interface chainVersion */\n      dup1\n        /* \"contracts/FundMe.sol\":804:812  dataFeed */\n      0x01\n      0x00\n      swap1\n      sload\n      swap1\n      0x0100\n      exp\n      swap1\n      div\n      0xffffffffffffffffffffffffffffffffffffffff\n      and\n        /* \"contracts/FundMe.sol\":767:812  AggregatorV3Interface chainVersion = dataFeed */\n      swap1\n      pop\n        /* \"contracts/FundMe.sol\":829:841  chainVersion */\n      dup1\n        /* \"contracts/FundMe.sol\":829:849  chainVersion.version */\n      0xffffffffffffffffffffffffffffffffffffffff\n      and\n      0x54fd4d50\n        /* \"contracts/FundMe.sol\":829:851  chainVersion.version() */\n      mload(0x40)\n      dup2\n      0xffffffff\n      and\n      0xe0\n      shl\n      dup2\n      mstore\n      0x04\n      add\n      0x20\n      mload(0x40)\n      dup1\n      dup4\n      sub\n      dup2\n      dup7\n      gas\n      staticcall\n      iszero\n      dup1\n      iszero\n      tag_45\n      jumpi\n      returndatasize\n      0x00\n      dup1\n      returndatacopy\n      revert(0x00, returndatasize)\n    tag_45:\n      pop\n      pop\n      pop\n      pop\n      mload(0x40)\n      returndatasize\n      not(0x1f)\n      0x1f\n      dup3\n      add\n      and\n      dup3\n      add\n      dup1\n      0x40\n      mstore\n      pop\n      dup2\n      add\n      swap1\n      tag_46\n      swap2\n      swap1\n      tag_47\n      jump\t// in\n    tag_46:\n        /* \"contracts/FundMe.sol\":822:851  return chainVersion.version() */\n      swap2\n      pop\n      pop\n        /* \"contracts/FundMe.sol\":705:858  function getVersion() public view returns (uint256) {... */\n      swap1\n      jump\t// out\n        /* \"contracts/FundMe.sol\":298:354  mapping(address => uint256) public addressToAmountFunded */\n    tag_19:\n      mstore(0x20, 0x03)\n      dup1\n      0x00\n      mstore\n      keccak256(0x00, 0x40)\n      0x00\n      swap2\n      pop\n      swap1\n      pop\n      sload\n      dup2\n      jump\t// out\n        /* \"contracts/FundMe.sol\":1225:1391  function getConvertionRate(uint256 ethPrice) public view returns (uint256) {... */\n    tag_25:\n        /* \"contracts/FundMe.sol\":1291:1298  uint256 */\n      0x00\n        /* \"contracts/FundMe.sol\":1310:1326  uint256 usdPrice */\n      dup1\n        /* \"contracts/FundMe.sol\":1329:1339  getPrice() */\n      tag_49\n        /* \"contracts/FundMe.sol\":1329:1337  getPrice */\n      tag_29\n        /* \"contracts/FundMe.sol\":1329:1339  getPrice() */\n      jump\t// in\n    tag_49:\n        /* \"contracts/FundMe.sol\":1310:1339  uint256 usdPrice = getPrice() */\n      swap1\n      pop\n        /* \"contracts/FundMe.sol\":1380:1384  1e18 */\n      0x0de0b6b3a7640000\n        /* \"contracts/FundMe.sol\":1368:1376  ethPrice */\n      dup4\n        /* \"contracts/FundMe.sol\":1357:1365  usdPrice */\n      dup3\n        /* \"contracts/FundMe.sol\":1357:1376  usdPrice * ethPrice */\n      tag_50\n      swap2\n      swap1\n      tag_51\n      jump\t// in\n    tag_50:\n        /* \"contracts/FundMe.sol\":1356:1384  (usdPrice * ethPrice) / 1e18 */\n      tag_52\n      swap2\n      swap1\n      tag_53\n      jump\t// in\n    tag_52:\n        /* \"contracts/FundMe.sol\":1349:1384  return (usdPrice * ethPrice) / 1e18 */\n      swap2\n      pop\n      pop\n        /* \"contracts/FundMe.sol\":1225:1391  function getConvertionRate(uint256 ethPrice) public view returns (uint256) {... */\n      swap2\n      swap1\n      pop\n      jump\t// out\n        /* \"contracts/FundMe.sol\":864:1219  function getPrice() public view returns (uint256) {... */\n    tag_29:\n        /* \"contracts/FundMe.sol\":905:912  uint256 */\n      0x00\n        /* \"contracts/FundMe.sol\":985:998  int256 answer */\n      dup1\n        /* \"contracts/FundMe.sol\":1106:1114  dataFeed */\n      0x01\n      0x00\n      swap1\n      sload\n      swap1\n      0x0100\n      exp\n      swap1\n      div\n      0xffffffffffffffffffffffffffffffffffffffff\n      and\n        /* \"contracts/FundMe.sol\":1106:1130  dataFeed.latestRoundData */\n      0xffffffffffffffffffffffffffffffffffffffff\n      and\n      0xfeaf968c\n        /* \"contracts/FundMe.sol\":1106:1132  dataFeed.latestRoundData() */\n      mload(0x40)\n      dup2\n      0xffffffff\n      and\n      0xe0\n      shl\n      dup2\n      mstore\n      0x04\n      add\n      0xa0\n      mload(0x40)\n      dup1\n      dup4\n      sub\n      dup2\n      dup7\n      gas\n      staticcall\n      iszero\n      dup1\n      iszero\n      tag_56\n      jumpi\n      returndatasize\n      0x00\n      dup1\n      returndatacopy\n      revert(0x00, returndatasize)\n    tag_56:\n      pop\n      pop\n      pop\n      pop\n      mload(0x40)\n      returndatasize\n      not(0x1f)\n      0x1f\n      dup3\n      add\n      and\n      dup3\n      add\n      dup1\n      0x40\n      mstore\n      pop\n      dup2\n      add\n      swap1\n      tag_57\n      swap2\n      swap1\n      tag_58\n      jump\t// in\n    tag_57:\n        /* \"contracts/FundMe.sol\":924:1132  (... */\n      pop\n      pop\n      pop\n      swap2\n      pop\n      pop\n        /* \"contracts/FundMe.sol\":1176:1180  1e10 */\n      0x02540be400\n        /* \"contracts/FundMe.sol\":1167:1173  answer */\n      dup2\n        /* \"contracts/FundMe.sol\":1167:1180  answer * 1e10 */\n      tag_59\n      swap2\n      swap1\n      tag_60\n      jump\t// in\n    tag_59:\n      pop\n        /* \"contracts/FundMe.sol\":1205:1211  answer */\n      dup1\n        /* \"contracts/FundMe.sol\":1190:1212  return uint256(answer) */\n      swap2\n      pop\n      pop\n        /* \"contracts/FundMe.sol\":864:1219  function getPrice() public view returns (uint256) {... */\n      swap1\n      jump\t// out\n        /* \"contracts/FundMe.sol\":496:699  function fund() public payable {... */\n    tag_32:\n        /* \"contracts/FundMe.sol\":576:579  usd */\n      sload(0x00)\n        /* \"contracts/FundMe.sol\":545:573  getConvertionRate(msg.value) */\n      tag_62\n        /* \"contracts/FundMe.sol\":563:572  msg.value */\n      callvalue\n        /* \"contracts/FundMe.sol\":545:562  getConvertionRate */\n      tag_25\n        /* \"contracts/FundMe.sol\":545:573  getConvertionRate(msg.value) */\n      jump\t// in\n    tag_62:\n        /* \"contracts/FundMe.sol\":545:579  getConvertionRate(msg.value) > usd */\n      gt\n        /* \"contracts/FundMe.sol\":537:603  require(getConvertionRate(msg.value) > usd, \"error, must be 1eth\") */\n      tag_63\n      jumpi\n      mload(0x40)\n      0x08c379a000000000000000000000000000000000000000000000000000000000\n      dup2\n      mstore\n      0x04\n      add\n      tag_64\n      swap1\n      tag_65\n      jump\t// in\n    tag_64:\n      mload(0x40)\n      dup1\n      swap2\n      sub\n      swap1\n      revert\n    tag_63:\n        /* \"contracts/FundMe.sol\":613:620  funders */\n      0x02\n        /* \"contracts/FundMe.sol\":626:636  msg.sender */\n      caller\n        /* \"contracts/FundMe.sol\":613:637  funders.push(msg.sender) */\n      swap1\n      dup1\n      0x01\n      dup2\n      sload\n      add\n      dup1\n      dup3\n      sstore\n      dup1\n      swap2\n      pop\n      pop\n      0x01\n      swap1\n      sub\n      swap1\n      0x00\n      mstore\n      keccak256(0x00, 0x20)\n      add\n      0x00\n      swap1\n      swap2\n      swap1\n      swap2\n      swap1\n      swap2\n      0x0100\n      exp\n      dup2\n      sload\n      dup2\n      0xffffffffffffffffffffffffffffffffffffffff\n      mul\n      not\n      and\n      swap1\n      dup4\n      0xffffffffffffffffffffffffffffffffffffffff\n      and\n      mul\n      or\n      swap1\n      sstore\n      pop\n        /* \"contracts/FundMe.sol\":683:692  msg.value */\n      callvalue\n        /* \"contracts/FundMe.sol\":647:668  addressToAmountFunded */\n      0x03\n        /* \"contracts/FundMe.sol\":647:680  addressToAmountFunded[msg.sender] */\n      0x00\n        /* \"contracts/FundMe.sol\":669:679  msg.sender */\n      caller\n        /* \"contracts/FundMe.sol\":647:680  addressToAmountFunded[msg.sender] */\n      0xffffffffffffffffffffffffffffffffffffffff\n      and\n      0xffffffffffffffffffffffffffffffffffffffff\n      and\n      dup2\n      mstore\n      0x20\n      add\n      swap1\n      dup2\n      mstore\n      0x20\n      add\n      0x00\n      keccak256\n        /* \"contracts/FundMe.sol\":647:692  addressToAmountFunded[msg.sender] = msg.value */\n      dup2\n      swap1\n      sstore\n      pop\n        /* \"contracts/FundMe.sol\":496:699  function fund() public payable {... */\n      jump\t// out\n        /* \"contracts/FundMe.sol\":193:217  uint256 public usd = 230 */\n    tag_35:\n      sload(0x00)\n      dup2\n      jump\t// out\n        /* \"contracts/FundMe.sol\":268:292  address[] public funders */\n    tag_40:\n      0x02\n      dup2\n      dup2\n      sload\n      dup2\n      lt\n      tag_67\n      jumpi\n      0x00\n      dup1\n      revert\n    tag_67:\n      swap1\n      0x00\n      mstore\n      keccak256(0x00, 0x20)\n      add\n      0x00\n      swap2\n      pop\n      sload\n      swap1\n      0x0100\n      exp\n      swap1\n      div\n      0xffffffffffffffffffffffffffffffffffffffff\n      and\n      dup2\n      jump\t// out\n        /* \"#utility.yul\":7:84   */\n    tag_69:\n        /* \"#utility.yul\":44:51   */\n      0x00\n        /* \"#utility.yul\":73:78   */\n      dup2\n        /* \"#utility.yul\":62:78   */\n      swap1\n      pop\n        /* \"#utility.yul\":7:84   */\n      swap2\n      swap1\n      pop\n      jump\t// out\n        /* \"#utility.yul\":90:208   */\n    tag_70:\n        /* \"#utility.yul\":177:201   */\n      tag_96\n        /* \"#utility.yul\":195:200   */\n      dup2\n        /* \"#utility.yul\":177:201   */\n      tag_69\n      jump\t// in\n    tag_96:\n        /* \"#utility.yul\":172:175   */\n      dup3\n        /* \"#utility.yul\":165:202   */\n      mstore\n        /* \"#utility.yul\":90:208   */\n      pop\n      pop\n      jump\t// out\n        /* \"#utility.yul\":214:436   */\n    tag_14:\n        /* \"#utility.yul\":307:311   */\n      0x00\n        /* \"#utility.yul\":345:347   */\n      0x20\n        /* \"#utility.yul\":334:343   */\n      dup3\n        /* \"#utility.yul\":330:348   */\n      add\n        /* \"#utility.yul\":322:348   */\n      swap1\n      pop\n        /* \"#utility.yul\":358:429   */\n      tag_98\n        /* \"#utility.yul\":426:427   */\n      0x00\n        /* \"#utility.yul\":415:424   */\n      dup4\n        /* \"#utility.yul\":411:428   */\n      add\n        /* \"#utility.yul\":402:408   */\n      dup5\n        /* \"#utility.yul\":358:429   */\n      tag_70\n      jump\t// in\n    tag_98:\n        /* \"#utility.yul\":214:436   */\n      swap3\n      swap2\n      pop\n      pop\n      jump\t// out\n        /* \"#utility.yul\":523:640   */\n    tag_72:\n        /* \"#utility.yul\":632:633   */\n      0x00\n        /* \"#utility.yul\":629:630   */\n      dup1\n        /* \"#utility.yul\":622:634   */\n      revert\n        /* \"#utility.yul\":769:895   */\n    tag_74:\n        /* \"#utility.yul\":806:813   */\n      0x00\n        /* \"#utility.yul\":846:888   */\n      0xffffffffffffffffffffffffffffffffffffffff\n        /* \"#utility.yul\":839:844   */\n      dup3\n        /* \"#utility.yul\":835:889   */\n      and\n        /* \"#utility.yul\":824:889   */\n      swap1\n      pop\n        /* \"#utility.yul\":769:895   */\n      swap2\n      swap1\n      pop\n      jump\t// out\n        /* \"#utility.yul\":901:997   */\n    tag_75:\n        /* \"#utility.yul\":938:945   */\n      0x00\n        /* \"#utility.yul\":967:991   */\n      tag_104\n        /* \"#utility.yul\":985:990   */\n      dup3\n        /* \"#utility.yul\":967:991   */\n      tag_74\n      jump\t// in\n    tag_104:\n        /* \"#utility.yul\":956:991   */\n      swap1\n      pop\n        /* \"#utility.yul\":901:997   */\n      swap2\n      swap1\n      pop\n      jump\t// out\n        /* \"#utility.yul\":1003:1125   */\n    tag_76:\n        /* \"#utility.yul\":1076:1100   */\n      tag_106\n        /* \"#utility.yul\":1094:1099   */\n      dup2\n        /* \"#utility.yul\":1076:1100   */\n      tag_75\n      jump\t// in\n    tag_106:\n        /* \"#utility.yul\":1069:1074   */\n      dup2\n        /* \"#utility.yul\":1066:1101   */\n      eq\n        /* \"#utility.yul\":1056:1119   */\n      tag_107\n      jumpi\n        /* \"#utility.yul\":1115:1116   */\n      0x00\n        /* \"#utility.yul\":1112:1113   */\n      dup1\n        /* \"#utility.yul\":1105:1117   */\n      revert\n        /* \"#utility.yul\":1056:1119   */\n    tag_107:\n        /* \"#utility.yul\":1003:1125   */\n      pop\n      jump\t// out\n        /* \"#utility.yul\":1131:1270   */\n    tag_77:\n        /* \"#utility.yul\":1177:1182   */\n      0x00\n        /* \"#utility.yul\":1215:1221   */\n      dup2\n        /* \"#utility.yul\":1202:1222   */\n      calldataload\n        /* \"#utility.yul\":1193:1222   */\n      swap1\n      pop\n        /* \"#utility.yul\":1231:1264   */\n      tag_109\n        /* \"#utility.yul\":1258:1263   */\n      dup2\n        /* \"#utility.yul\":1231:1264   */\n      tag_76\n      jump\t// in\n    tag_109:\n        /* \"#utility.yul\":1131:1270   */\n      swap3\n      swap2\n      pop\n      pop\n      jump\t// out\n        /* \"#utility.yul\":1276:1605   */\n    tag_18:\n        /* \"#utility.yul\":1335:1341   */\n      0x00\n        /* \"#utility.yul\":1384:1386   */\n      0x20\n        /* \"#utility.yul\":1372:1381   */\n      dup3\n        /* \"#utility.yul\":1363:1370   */\n      dup5\n        /* \"#utility.yul\":1359:1382   */\n      sub\n        /* \"#utility.yul\":1355:1387   */\n      slt\n        /* \"#utility.yul\":1352:1471   */\n      iszero\n      tag_111\n      jumpi\n        /* \"#utility.yul\":1390:1469   */\n      tag_112\n      tag_72\n      jump\t// in\n    tag_112:\n        /* \"#utility.yul\":1352:1471   */\n    tag_111:\n        /* \"#utility.yul\":1510:1511   */\n      0x00\n        /* \"#utility.yul\":1535:1588   */\n      tag_113\n        /* \"#utility.yul\":1580:1587   */\n      dup5\n        /* \"#utility.yul\":1571:1577   */\n      dup3\n        /* \"#utility.yul\":1560:1569   */\n      dup6\n        /* \"#utility.yul\":1556:1578   */\n      add\n        /* \"#utility.yul\":1535:1588   */\n      tag_77\n      jump\t// in\n    tag_113:\n        /* \"#utility.yul\":1525:1588   */\n      swap2\n      pop\n        /* \"#utility.yul\":1481:1598   */\n      pop\n        /* \"#utility.yul\":1276:1605   */\n      swap3\n      swap2\n      pop\n      pop\n      jump\t// out\n        /* \"#utility.yul\":1611:1733   */\n    tag_78:\n        /* \"#utility.yul\":1684:1708   */\n      tag_115\n        /* \"#utility.yul\":1702:1707   */\n      dup2\n        /* \"#utility.yul\":1684:1708   */\n      tag_69\n      jump\t// in\n    tag_115:\n        /* \"#utility.yul\":1677:1682   */\n      dup2\n        /* \"#utility.yul\":1674:1709   */\n      eq\n        /* \"#utility.yul\":1664:1727   */\n      tag_116\n      jumpi\n        /* \"#utility.yul\":1723:1724   */\n      0x00\n        /* \"#utility.yul\":1720:1721   */\n      dup1\n        /* \"#utility.yul\":1713:1725   */\n      revert\n        /* \"#utility.yul\":1664:1727   */\n    tag_116:\n        /* \"#utility.yul\":1611:1733   */\n      pop\n      jump\t// out\n        /* \"#utility.yul\":1739:1878   */\n    tag_79:\n        /* \"#utility.yul\":1785:1790   */\n      0x00\n        /* \"#utility.yul\":1823:1829   */\n      dup2\n        /* \"#utility.yul\":1810:1830   */\n      calldataload\n        /* \"#utility.yul\":1801:1830   */\n      swap1\n      pop\n        /* \"#utility.yul\":1839:1872   */\n      tag_118\n        /* \"#utility.yul\":1866:1871   */\n      dup2\n        /* \"#utility.yul\":1839:1872   */\n      tag_78\n      jump\t// in\n    tag_118:\n        /* \"#utility.yul\":1739:1878   */\n      swap3\n      swap2\n      pop\n      pop\n      jump\t// out\n        /* \"#utility.yul\":1884:2213   */\n    tag_24:\n        /* \"#utility.yul\":1943:1949   */\n      0x00\n        /* \"#utility.yul\":1992:1994   */\n      0x20\n        /* \"#utility.yul\":1980:1989   */\n      dup3\n        /* \"#utility.yul\":1971:1978   */\n      dup5\n        /* \"#utility.yul\":1967:1990   */\n      sub\n        /* \"#utility.yul\":1963:1995   */\n      slt\n        /* \"#utility.yul\":1960:2079   */\n      iszero\n      tag_120\n      jumpi\n        /* \"#utility.yul\":1998:2077   */\n      tag_121\n      tag_72\n      jump\t// in\n    tag_121:\n        /* \"#utility.yul\":1960:2079   */\n    tag_120:\n        /* \"#utility.yul\":2118:2119   */\n      0x00\n        /* \"#utility.yul\":2143:2196   */\n      tag_122\n        /* \"#utility.yul\":2188:2195   */\n      dup5\n        /* \"#utility.yul\":2179:2185   */\n      dup3\n        /* \"#utility.yul\":2168:2177   */\n      dup6\n        /* \"#utility.yul\":2164:2186   */\n      add\n        /* \"#utility.yul\":2143:2196   */\n      tag_79\n      jump\t// in\n    tag_122:\n        /* \"#utility.yul\":2133:2196   */\n      swap2\n      pop\n        /* \"#utility.yul\":2089:2206   */\n      pop\n        /* \"#utility.yul\":1884:2213   */\n      swap3\n      swap2\n      pop\n      pop\n      jump\t// out\n        /* \"#utility.yul\":2219:2337   */\n    tag_80:\n        /* \"#utility.yul\":2306:2330   */\n      tag_124\n        /* \"#utility.yul\":2324:2329   */\n      dup2\n        /* \"#utility.yul\":2306:2330   */\n      tag_75\n      jump\t// in\n    tag_124:\n        /* \"#utility.yul\":2301:2304   */\n      dup3\n        /* \"#utility.yul\":2294:2331   */\n      mstore\n        /* \"#utility.yul\":2219:2337   */\n      pop\n      pop\n      jump\t// out\n        /* \"#utility.yul\":2343:2565   */\n    tag_42:\n        /* \"#utility.yul\":2436:2440   */\n      0x00\n        /* \"#utility.yul\":2474:2476   */\n      0x20\n        /* \"#utility.yul\":2463:2472   */\n      dup3\n        /* \"#utility.yul\":2459:2477   */\n      add\n        /* \"#utility.yul\":2451:2477   */\n      swap1\n      pop\n        /* \"#utility.yul\":2487:2558   */\n      tag_126\n        /* \"#utility.yul\":2555:2556   */\n      0x00\n        /* \"#utility.yul\":2544:2553   */\n      dup4\n        /* \"#utility.yul\":2540:2557   */\n      add\n        /* \"#utility.yul\":2531:2537   */\n      dup5\n        /* \"#utility.yul\":2487:2558   */\n      tag_80\n      jump\t// in\n    tag_126:\n        /* \"#utility.yul\":2343:2565   */\n      swap3\n      swap2\n      pop\n      pop\n      jump\t// out\n        /* \"#utility.yul\":2571:2714   */\n    tag_81:\n        /* \"#utility.yul\":2628:2633   */\n      0x00\n        /* \"#utility.yul\":2659:2665   */\n      dup2\n        /* \"#utility.yul\":2653:2666   */\n      mload\n        /* \"#utility.yul\":2644:2666   */\n      swap1\n      pop\n        /* \"#utility.yul\":2675:2708   */\n      tag_128\n        /* \"#utility.yul\":2702:2707   */\n      dup2\n        /* \"#utility.yul\":2675:2708   */\n      tag_78\n      jump\t// in\n    tag_128:\n        /* \"#utility.yul\":2571:2714   */\n      swap3\n      swap2\n      pop\n      pop\n      jump\t// out\n        /* \"#utility.yul\":2720:3071   */\n    tag_47:\n        /* \"#utility.yul\":2790:2796   */\n      0x00\n        /* \"#utility.yul\":2839:2841   */\n      0x20\n        /* \"#utility.yul\":2827:2836   */\n      dup3\n        /* \"#utility.yul\":2818:2825   */\n      dup5\n        /* \"#utility.yul\":2814:2837   */\n      sub\n        /* \"#utility.yul\":2810:2842   */\n      slt\n        /* \"#utility.yul\":2807:2926   */\n      iszero\n      tag_130\n      jumpi\n        /* \"#utility.yul\":2845:2924   */\n      tag_131\n      tag_72\n      jump\t// in\n    tag_131:\n        /* \"#utility.yul\":2807:2926   */\n    tag_130:\n        /* \"#utility.yul\":2965:2966   */\n      0x00\n        /* \"#utility.yul\":2990:3054   */\n      tag_132\n        /* \"#utility.yul\":3046:3053   */\n      dup5\n        /* \"#utility.yul\":3037:3043   */\n      dup3\n        /* \"#utility.yul\":3026:3035   */\n      dup6\n        /* \"#utility.yul\":3022:3044   */\n      add\n        /* \"#utility.yul\":2990:3054   */\n      tag_81\n      jump\t// in\n    tag_132:\n        /* \"#utility.yul\":2980:3054   */\n      swap2\n      pop\n        /* \"#utility.yul\":2936:3064   */\n      pop\n        /* \"#utility.yul\":2720:3071   */\n      swap3\n      swap2\n      pop\n      pop\n      jump\t// out\n        /* \"#utility.yul\":3077:3257   */\n    tag_82:\n        /* \"#utility.yul\":3125:3202   */\n      0x4e487b7100000000000000000000000000000000000000000000000000000000\n        /* \"#utility.yul\":3122:3123   */\n      0x00\n        /* \"#utility.yul\":3115:3203   */\n      mstore\n        /* \"#utility.yul\":3222:3226   */\n      0x11\n        /* \"#utility.yul\":3219:3220   */\n      0x04\n        /* \"#utility.yul\":3212:3227   */\n      mstore\n        /* \"#utility.yul\":3246:3250   */\n      0x24\n        /* \"#utility.yul\":3243:3244   */\n      0x00\n        /* \"#utility.yul\":3236:3251   */\n      revert\n        /* \"#utility.yul\":3263:3673   */\n    tag_51:\n        /* \"#utility.yul\":3303:3310   */\n      0x00\n        /* \"#utility.yul\":3326:3346   */\n      tag_135\n        /* \"#utility.yul\":3344:3345   */\n      dup3\n        /* \"#utility.yul\":3326:3346   */\n      tag_69\n      jump\t// in\n    tag_135:\n        /* \"#utility.yul\":3321:3346   */\n      swap2\n      pop\n        /* \"#utility.yul\":3360:3380   */\n      tag_136\n        /* \"#utility.yul\":3378:3379   */\n      dup4\n        /* \"#utility.yul\":3360:3380   */\n      tag_69\n      jump\t// in\n    tag_136:\n        /* \"#utility.yul\":3355:3380   */\n      swap3\n      pop\n        /* \"#utility.yul\":3415:3416   */\n      dup3\n        /* \"#utility.yul\":3412:3413   */\n      dup3\n        /* \"#utility.yul\":3408:3417   */\n      mul\n        /* \"#utility.yul\":3437:3467   */\n      tag_137\n        /* \"#utility.yul\":3455:3466   */\n      dup2\n        /* \"#utility.yul\":3437:3467   */\n      tag_69\n      jump\t// in\n    tag_137:\n        /* \"#utility.yul\":3426:3467   */\n      swap2\n      pop\n        /* \"#utility.yul\":3616:3617   */\n      dup3\n        /* \"#utility.yul\":3607:3614   */\n      dup3\n        /* \"#utility.yul\":3603:3618   */\n      div\n        /* \"#utility.yul\":3600:3601   */\n      dup5\n        /* \"#utility.yul\":3597:3619   */\n      eq\n        /* \"#utility.yul\":3577:3578   */\n      dup4\n        /* \"#utility.yul\":3570:3579   */\n      iszero\n        /* \"#utility.yul\":3550:3633   */\n      or\n        /* \"#utility.yul\":3527:3666   */\n      tag_138\n      jumpi\n        /* \"#utility.yul\":3646:3664   */\n      tag_139\n      tag_82\n      jump\t// in\n    tag_139:\n        /* \"#utility.yul\":3527:3666   */\n    tag_138:\n        /* \"#utility.yul\":3311:3673   */\n      pop\n        /* \"#utility.yul\":3263:3673   */\n      swap3\n      swap2\n      pop\n      pop\n      jump\t// out\n        /* \"#utility.yul\":3679:3859   */\n    tag_83:\n        /* \"#utility.yul\":3727:3804   */\n      0x4e487b7100000000000000000000000000000000000000000000000000000000\n        /* \"#utility.yul\":3724:3725   */\n      0x00\n        /* \"#utility.yul\":3717:3805   */\n      mstore\n        /* \"#utility.yul\":3824:3828   */\n      0x12\n        /* \"#utility.yul\":3821:3822   */\n      0x04\n        /* \"#utility.yul\":3814:3829   */\n      mstore\n        /* \"#utility.yul\":3848:3852   */\n      0x24\n        /* \"#utility.yul\":3845:3846   */\n      0x00\n        /* \"#utility.yul\":3838:3853   */\n      revert\n        /* \"#utility.yul\":3865:4050   */\n    tag_53:\n        /* \"#utility.yul\":3905:3906   */\n      0x00\n        /* \"#utility.yul\":3922:3942   */\n      tag_142\n        /* \"#utility.yul\":3940:3941   */\n      dup3\n        /* \"#utility.yul\":3922:3942   */\n      tag_69\n      jump\t// in\n    tag_142:\n        /* \"#utility.yul\":3917:3942   */\n      swap2\n      pop\n        /* \"#utility.yul\":3956:3976   */\n      tag_143\n        /* \"#utility.yul\":3974:3975   */\n      dup4\n        /* \"#utility.yul\":3956:3976   */\n      tag_69\n      jump\t// in\n    tag_143:\n        /* \"#utility.yul\":3951:3976   */\n      swap3\n      pop\n        /* \"#utility.yul\":3995:3996   */\n      dup3\n        /* \"#utility.yul\":3985:4020   */\n      tag_144\n      jumpi\n        /* \"#utility.yul\":4000:4018   */\n      tag_145\n      tag_83\n      jump\t// in\n    tag_145:\n        /* \"#utility.yul\":3985:4020   */\n    tag_144:\n        /* \"#utility.yul\":4042:4043   */\n      dup3\n        /* \"#utility.yul\":4039:4040   */\n      dup3\n        /* \"#utility.yul\":4035:4044   */\n      div\n        /* \"#utility.yul\":4030:4044   */\n      swap1\n      pop\n        /* \"#utility.yul\":3865:4050   */\n      swap3\n      swap2\n      pop\n      pop\n      jump\t// out\n        /* \"#utility.yul\":4056:4161   */\n    tag_84:\n        /* \"#utility.yul\":4092:4099   */\n      0x00\n        /* \"#utility.yul\":4132:4154   */\n      0xffffffffffffffffffff\n        /* \"#utility.yul\":4125:4130   */\n      dup3\n        /* \"#utility.yul\":4121:4155   */\n      and\n        /* \"#utility.yul\":4110:4155   */\n      swap1\n      pop\n        /* \"#utility.yul\":4056:4161   */\n      swap2\n      swap1\n      pop\n      jump\t// out\n        /* \"#utility.yul\":4167:4287   */\n    tag_85:\n        /* \"#utility.yul\":4239:4262   */\n      tag_148\n        /* \"#utility.yul\":4256:4261   */\n      dup2\n        /* \"#utility.yul\":4239:4262   */\n      tag_84\n      jump\t// in\n    tag_148:\n        /* \"#utility.yul\":4232:4237   */\n      dup2\n        /* \"#utility.yul\":4229:4263   */\n      eq\n        /* \"#utility.yul\":4219:4281   */\n      tag_149\n      jumpi\n        /* \"#utility.yul\":4277:4278   */\n      0x00\n        /* \"#utility.yul\":4274:4275   */\n      dup1\n        /* \"#utility.yul\":4267:4279   */\n      revert\n        /* \"#utility.yul\":4219:4281   */\n    tag_149:\n        /* \"#utility.yul\":4167:4287   */\n      pop\n      jump\t// out\n        /* \"#utility.yul\":4293:4434   */\n    tag_86:\n        /* \"#utility.yul\":4349:4354   */\n      0x00\n        /* \"#utility.yul\":4380:4386   */\n      dup2\n        /* \"#utility.yul\":4374:4387   */\n      mload\n        /* \"#utility.yul\":4365:4387   */\n      swap1\n      pop\n        /* \"#utility.yul\":4396:4428   */\n      tag_151\n        /* \"#utility.yul\":4422:4427   */\n      dup2\n        /* \"#utility.yul\":4396:4428   */\n      tag_85\n      jump\t// in\n    tag_151:\n        /* \"#utility.yul\":4293:4434   */\n      swap3\n      swap2\n      pop\n      pop\n      jump\t// out\n        /* \"#utility.yul\":4440:4516   */\n    tag_87:\n        /* \"#utility.yul\":4476:4483   */\n      0x00\n        /* \"#utility.yul\":4505:4510   */\n      dup2\n        /* \"#utility.yul\":4494:4510   */\n      swap1\n      pop\n        /* \"#utility.yul\":4440:4516   */\n      swap2\n      swap1\n      pop\n      jump\t// out\n        /* \"#utility.yul\":4522:4642   */\n    tag_88:\n        /* \"#utility.yul\":4594:4617   */\n      tag_154\n        /* \"#utility.yul\":4611:4616   */\n      dup2\n        /* \"#utility.yul\":4594:4617   */\n      tag_87\n      jump\t// in\n    tag_154:\n        /* \"#utility.yul\":4587:4592   */\n      dup2\n        /* \"#utility.yul\":4584:4618   */\n      eq\n        /* \"#utility.yul\":4574:4636   */\n      tag_155\n      jumpi\n        /* \"#utility.yul\":4632:4633   */\n      0x00\n        /* \"#utility.yul\":4629:4630   */\n      dup1\n        /* \"#utility.yul\":4622:4634   */\n      revert\n        /* \"#utility.yul\":4574:4636   */\n    tag_155:\n        /* \"#utility.yul\":4522:4642   */\n      pop\n      jump\t// out\n        /* \"#utility.yul\":4648:4789   */\n    tag_89:\n        /* \"#utility.yul\":4704:4709   */\n      0x00\n        /* \"#utility.yul\":4735:4741   */\n      dup2\n        /* \"#utility.yul\":4729:4742   */\n      mload\n        /* \"#utility.yul\":4720:4742   */\n      swap1\n      pop\n        /* \"#utility.yul\":4751:4783   */\n      tag_157\n        /* \"#utility.yul\":4777:4782   */\n      dup2\n        /* \"#utility.yul\":4751:4783   */\n      tag_88\n      jump\t// in\n    tag_157:\n        /* \"#utility.yul\":4648:4789   */\n      swap3\n      swap2\n      pop\n      pop\n      jump\t// out\n        /* \"#utility.yul\":4795:5766   */\n    tag_58:\n        /* \"#utility.yul\":4898:4904   */\n      0x00\n        /* \"#utility.yul\":4906:4912   */\n      dup1\n        /* \"#utility.yul\":4914:4920   */\n      0x00\n        /* \"#utility.yul\":4922:4928   */\n      dup1\n        /* \"#utility.yul\":4930:4936   */\n      0x00\n        /* \"#utility.yul\":4979:4982   */\n      0xa0\n        /* \"#utility.yul\":4967:4976   */\n      dup7\n        /* \"#utility.yul\":4958:4965   */\n      dup9\n        /* \"#utility.yul\":4954:4977   */\n      sub\n        /* \"#utility.yul\":4950:4983   */\n      slt\n        /* \"#utility.yul\":4947:5067   */\n      iszero\n      tag_159\n      jumpi\n        /* \"#utility.yul\":4986:5065   */\n      tag_160\n      tag_72\n      jump\t// in\n    tag_160:\n        /* \"#utility.yul\":4947:5067   */\n    tag_159:\n        /* \"#utility.yul\":5106:5107   */\n      0x00\n        /* \"#utility.yul\":5131:5194   */\n      tag_161\n        /* \"#utility.yul\":5186:5193   */\n      dup9\n        /* \"#utility.yul\":5177:5183   */\n      dup3\n        /* \"#utility.yul\":5166:5175   */\n      dup10\n        /* \"#utility.yul\":5162:5184   */\n      add\n        /* \"#utility.yul\":5131:5194   */\n      tag_86\n      jump\t// in\n    tag_161:\n        /* \"#utility.yul\":5121:5194   */\n      swap6\n      pop\n        /* \"#utility.yul\":5077:5204   */\n      pop\n        /* \"#utility.yul\":5243:5245   */\n      0x20\n        /* \"#utility.yul\":5269:5332   */\n      tag_162\n        /* \"#utility.yul\":5324:5331   */\n      dup9\n        /* \"#utility.yul\":5315:5321   */\n      dup3\n        /* \"#utility.yul\":5304:5313   */\n      dup10\n        /* \"#utility.yul\":5300:5322   */\n      add\n        /* \"#utility.yul\":5269:5332   */\n      tag_89\n      jump\t// in\n    tag_162:\n        /* \"#utility.yul\":5259:5332   */\n      swap5\n      pop\n        /* \"#utility.yul\":5214:5342   */\n      pop\n        /* \"#utility.yul\":5381:5383   */\n      0x40\n        /* \"#utility.yul\":5407:5471   */\n      tag_163\n        /* \"#utility.yul\":5463:5470   */\n      dup9\n        /* \"#utility.yul\":5454:5460   */\n      dup3\n        /* \"#utility.yul\":5443:5452   */\n      dup10\n        /* \"#utility.yul\":5439:5461   */\n      add\n        /* \"#utility.yul\":5407:5471   */\n      tag_81\n      jump\t// in\n    tag_163:\n        /* \"#utility.yul\":5397:5471   */\n      swap4\n      pop\n        /* \"#utility.yul\":5352:5481   */\n      pop\n        /* \"#utility.yul\":5520:5522   */\n      0x60\n        /* \"#utility.yul\":5546:5610   */\n      tag_164\n        /* \"#utility.yul\":5602:5609   */\n      dup9\n        /* \"#utility.yul\":5593:5599   */\n      dup3\n        /* \"#utility.yul\":5582:5591   */\n      dup10\n        /* \"#utility.yul\":5578:5600   */\n      add\n        /* \"#utility.yul\":5546:5610   */\n      tag_81\n      jump\t// in\n    tag_164:\n        /* \"#utility.yul\":5536:5610   */\n      swap3\n      pop\n        /* \"#utility.yul\":5491:5620   */\n      pop\n        /* \"#utility.yul\":5659:5662   */\n      0x80\n        /* \"#utility.yul\":5686:5749   */\n      tag_165\n        /* \"#utility.yul\":5741:5748   */\n      dup9\n        /* \"#utility.yul\":5732:5738   */\n      dup3\n        /* \"#utility.yul\":5721:5730   */\n      dup10\n        /* \"#utility.yul\":5717:5739   */\n      add\n        /* \"#utility.yul\":5686:5749   */\n      tag_86\n      jump\t// in\n    tag_165:\n        /* \"#utility.yul\":5676:5749   */\n      swap2\n      pop\n        /* \"#utility.yul\":5630:5759   */\n      pop\n        /* \"#utility.yul\":4795:5766   */\n      swap3\n      swap6\n      pop\n      swap3\n      swap6\n      swap1\n      swap4\n      pop\n      jump\t// out\n        /* \"#utility.yul\":5772:6328   */\n    tag_60:\n        /* \"#utility.yul\":5811:5818   */\n      0x00\n        /* \"#utility.yul\":5834:5853   */\n      tag_167\n        /* \"#utility.yul\":5851:5852   */\n      dup3\n        /* \"#utility.yul\":5834:5853   */\n      tag_87\n      jump\t// in\n    tag_167:\n        /* \"#utility.yul\":5829:5853   */\n      swap2\n      pop\n        /* \"#utility.yul\":5867:5886   */\n      tag_168\n        /* \"#utility.yul\":5884:5885   */\n      dup4\n        /* \"#utility.yul\":5867:5886   */\n      tag_87\n      jump\t// in\n    tag_168:\n        /* \"#utility.yul\":5862:5886   */\n      swap3\n      pop\n        /* \"#utility.yul\":5921:5922   */\n      dup3\n        /* \"#utility.yul\":5918:5919   */\n      dup3\n        /* \"#utility.yul\":5914:5923   */\n      mul\n        /* \"#utility.yul\":5943:5972   */\n      tag_169\n        /* \"#utility.yul\":5960:5971   */\n      dup2\n        /* \"#utility.yul\":5943:5972   */\n      tag_87\n      jump\t// in\n    tag_169:\n        /* \"#utility.yul\":5932:5972   */\n      swap2\n      pop\n        /* \"#utility.yul\":6030:6096   */\n      0x8000000000000000000000000000000000000000000000000000000000000000\n        /* \"#utility.yul\":6027:6028   */\n      dup5\n        /* \"#utility.yul\":6024:6097   */\n      eq\n        /* \"#utility.yul\":6020:6021   */\n      0x00\n        /* \"#utility.yul\":6017:6018   */\n      dup5\n        /* \"#utility.yul\":6013:6022   */\n      slt\n        /* \"#utility.yul\":6009:6098   */\n      and\n        /* \"#utility.yul\":6006:6121   */\n      iszero\n      tag_170\n      jumpi\n        /* \"#utility.yul\":6101:6119   */\n      tag_171\n      tag_82\n      jump\t// in\n    tag_171:\n        /* \"#utility.yul\":6006:6121   */\n    tag_170:\n        /* \"#utility.yul\":6271:6272   */\n      dup3\n        /* \"#utility.yul\":6262:6269   */\n      dup3\n        /* \"#utility.yul\":6257:6273   */\n      sdiv\n        /* \"#utility.yul\":6254:6255   */\n      dup5\n        /* \"#utility.yul\":6251:6274   */\n      eq\n        /* \"#utility.yul\":6231:6232   */\n      dup4\n        /* \"#utility.yul\":6224:6233   */\n      iszero\n        /* \"#utility.yul\":6204:6288   */\n      or\n        /* \"#utility.yul\":6181:6321   */\n      tag_172\n      jumpi\n        /* \"#utility.yul\":6301:6319   */\n      tag_173\n      tag_82\n      jump\t// in\n    tag_173:\n        /* \"#utility.yul\":6181:6321   */\n    tag_172:\n        /* \"#utility.yul\":5819:6328   */\n      pop\n        /* \"#utility.yul\":5772:6328   */\n      swap3\n      swap2\n      pop\n      pop\n      jump\t// out\n        /* \"#utility.yul\":6334:6503   */\n    tag_90:\n        /* \"#utility.yul\":6418:6429   */\n      0x00\n        /* \"#utility.yul\":6452:6458   */\n      dup3\n        /* \"#utility.yul\":6447:6450   */\n      dup3\n        /* \"#utility.yul\":6440:6459   */\n      mstore\n        /* \"#utility.yul\":6492:6496   */\n      0x20\n        /* \"#utility.yul\":6487:6490   */\n      dup3\n        /* \"#utility.yul\":6483:6497   */\n      add\n        /* \"#utility.yul\":6468:6497   */\n      swap1\n      pop\n        /* \"#utility.yul\":6334:6503   */\n      swap3\n      swap2\n      pop\n      pop\n      jump\t// out\n        /* \"#utility.yul\":6509:6678   */\n    tag_91:\n        /* \"#utility.yul\":6649:6670   */\n      0x6572726f722c206d757374206265203165746800000000000000000000000000\n        /* \"#utility.yul\":6645:6646   */\n      0x00\n        /* \"#utility.yul\":6637:6643   */\n      dup3\n        /* \"#utility.yul\":6633:6647   */\n      add\n        /* \"#utility.yul\":6626:6671   */\n      mstore\n        /* \"#utility.yul\":6509:6678   */\n      pop\n      jump\t// out\n        /* \"#utility.yul\":6684:7050   */\n    tag_92:\n        /* \"#utility.yul\":6826:6829   */\n      0x00\n        /* \"#utility.yul\":6847:6914   */\n      tag_177\n        /* \"#utility.yul\":6911:6913   */\n      0x13\n        /* \"#utility.yul\":6906:6909   */\n      dup4\n        /* \"#utility.yul\":6847:6914   */\n      tag_90\n      jump\t// in\n    tag_177:\n        /* \"#utility.yul\":6840:6914   */\n      swap2\n      pop\n        /* \"#utility.yul\":6923:7016   */\n      tag_178\n        /* \"#utility.yul\":7012:7015   */\n      dup3\n        /* \"#utility.yul\":6923:7016   */\n      tag_91\n      jump\t// in\n    tag_178:\n        /* \"#utility.yul\":7041:7043   */\n      0x20\n        /* \"#utility.yul\":7036:7039   */\n      dup3\n        /* \"#utility.yul\":7032:7044   */\n      add\n        /* \"#utility.yul\":7025:7044   */\n      swap1\n      pop\n        /* \"#utility.yul\":6684:7050   */\n      swap2\n      swap1\n      pop\n      jump\t// out\n        /* \"#utility.yul\":7056:7475   */\n    tag_65:\n        /* \"#utility.yul\":7222:7226   */\n      0x00\n        /* \"#utility.yul\":7260:7262   */\n      0x20\n        /* \"#utility.yul\":7249:7258   */\n      dup3\n        /* \"#utility.yul\":7245:7263   */\n      add\n        /* \"#utility.yul\":7237:7263   */\n      swap1\n      pop\n        /* \"#utility.yul\":7309:7318   */\n      dup2\n        /* \"#utility.yul\":7303:7307   */\n      dup2\n        /* \"#utility.yul\":7299:7319   */\n      sub\n        /* \"#utility.yul\":7295:7296   */\n      0x00\n        /* \"#utility.yul\":7284:7293   */\n      dup4\n        /* \"#utility.yul\":7280:7297   */\n      add\n        /* \"#utility.yul\":7273:7320   */\n      mstore\n        /* \"#utility.yul\":7337:7468   */\n      tag_180\n        /* \"#utility.yul\":7463:7467   */\n      dup2\n        /* \"#utility.yul\":7337:7468   */\n      tag_92\n      jump\t// in\n    tag_180:\n        /* \"#utility.yul\":7329:7468   */\n      swap1\n      pop\n        /* \"#utility.yul\":7056:7475   */\n      swap2\n      swap1\n      pop\n      jump\t// out\n\n    auxdata: 0xa2646970667358221220863e05e847ab4c322e1b2bd9f49aecfb084e65a674eb5c85f59a8421338d436b64736f6c634300081a0033\n}\n",
				"bytecode": {
					"linkReferences": {},
					"object": "608060405260e65f553480156012575f80fd5b5073694aa1769357215de4fac081bf1f309adc32530660015f6101000a81548173ffffffffffffffffffffffffffffffffffffffff021916908373ffffffffffffffffffffffffffffffffffffffff1602179055506108bc806100745f395ff3fe60806040526004361061006f575f3560e01c806398d5fdca1161004d57806398d5fdca14610115578063b60d42881461013f578063d63a6ccd14610149578063dc0d3dff146101735761006f565b80630d8e6e2c146100735780633e47d6f31461009d5780633e8cdcda146100d9575b5f80fd5b34801561007e575f80fd5b506100876101af565b6040516100949190610486565b60405180910390f35b3480156100a8575f80fd5b506100c360048036038101906100be91906104fd565b610248565b6040516100d09190610486565b60405180910390f35b3480156100e4575f80fd5b506100ff60048036038101906100fa9190610552565b61025d565b60405161010c9190610486565b60405180910390f35b348015610120575f80fd5b50610129610290565b6040516101369190610486565b60405180910390f35b61014761033f565b005b348015610154575f80fd5b5061015d61042e565b60405161016a9190610486565b60405180910390f35b34801561017e575f80fd5b5061019960048036038101906101949190610552565b610433565b6040516101a6919061058c565b60405180910390f35b5f8060015f9054906101000a900473ffffffffffffffffffffffffffffffffffffffff1690508073ffffffffffffffffffffffffffffffffffffffff166354fd4d506040518163ffffffff1660e01b8152600401602060405180830381865afa15801561021e573d5f803e3d5ffd5b505050506040513d601f19601f8201168201806040525081019061024291906105b9565b91505090565b6003602052805f5260405f205f915090505481565b5f80610267610290565b9050670de0b6b3a7640000838261027e9190610611565b610288919061067f565b915050919050565b5f8060015f9054906101000a900473ffffffffffffffffffffffffffffffffffffffff1673ffffffffffffffffffffffffffffffffffffffff1663feaf968c6040518163ffffffff1660e01b815260040160a060405180830381865afa1580156102fc573d5f803e3d5ffd5b505050506040513d601f19601f820116820180604052508101906103209190610721565b5050509150506402540be400816103379190610798565b508091505090565b5f5461034a3461025d565b1161038a576040517f08c379a000000000000000000000000000000000000000000000000000000000815260040161038190610868565b60405180910390fd5b600233908060018154018082558091505060019003905f5260205f20015f9091909190916101000a81548173ffffffffffffffffffffffffffffffffffffffff021916908373ffffffffffffffffffffffffffffffffffffffff1602179055503460035f3373ffffffffffffffffffffffffffffffffffffffff1673ffffffffffffffffffffffffffffffffffffffff1681526020019081526020015f2081905550565b5f5481565b60028181548110610442575f80fd5b905f5260205f20015f915054906101000a900473ffffffffffffffffffffffffffffffffffffffff1681565b5f819050919050565b6104808161046e565b82525050565b5f6020820190506104995f830184610477565b92915050565b5f80fd5b5f73ffffffffffffffffffffffffffffffffffffffff82169050919050565b5f6104cc826104a3565b9050919050565b6104dc816104c2565b81146104e6575f80fd5b50565b5f813590506104f7816104d3565b92915050565b5f602082840312156105125761051161049f565b5b5f61051f848285016104e9565b91505092915050565b6105318161046e565b811461053b575f80fd5b50565b5f8135905061054c81610528565b92915050565b5f602082840312156105675761056661049f565b5b5f6105748482850161053e565b91505092915050565b610586816104c2565b82525050565b5f60208201905061059f5f83018461057d565b92915050565b5f815190506105b381610528565b92915050565b5f602082840312156105ce576105cd61049f565b5b5f6105db848285016105a5565b91505092915050565b7f4e487b71000000000000000000000000000000000000000000000000000000005f52601160045260245ffd5b5f61061b8261046e565b91506106268361046e565b92508282026106348161046e565b9150828204841483151761064b5761064a6105e4565b5b5092915050565b7f4e487b71000000000000000000000000000000000000000000000000000000005f52601260045260245ffd5b5f6106898261046e565b91506106948361046e565b9250826106a4576106a3610652565b5b828204905092915050565b5f69ffffffffffffffffffff82169050919050565b6106cd816106af565b81146106d7575f80fd5b50565b5f815190506106e8816106c4565b92915050565b5f819050919050565b610700816106ee565b811461070a575f80fd5b50565b5f8151905061071b816106f7565b92915050565b5f805f805f60a0868803121561073a5761073961049f565b5b5f610747888289016106da565b95505060206107588882890161070d565b9450506040610769888289016105a5565b935050606061077a888289016105a5565b925050608061078b888289016106da565b9150509295509295909350565b5f6107a2826106ee565b91506107ad836106ee565b92508282026107bb816106ee565b91507f800000000000000000000000000000000000000000000000000000000000000084145f841216156107f2576107f16105e4565b5b8282058414831517610807576108066105e4565b5b5092915050565b5f82825260208201905092915050565b7f6572726f722c206d7573742062652031657468000000000000000000000000005f82015250565b5f61085260138361080e565b915061085d8261081e565b602082019050919050565b5f6020820190508181035f83015261087f81610846565b905091905056fea2646970667358221220863e05e847ab4c322e1b2bd9f49aecfb084e65a674eb5c85f59a8421338d436b64736f6c634300081a0033",
					"opcodes": "PUSH1 0x80 PUSH1 0x40 MSTORE PUSH1 0xE6 PUSH0 SSTORE CALLVALUE DUP1 ISZERO PUSH1 0x12 JUMPI PUSH0 DUP1 REVERT JUMPDEST POP PUSH20 0x694AA1769357215DE4FAC081BF1F309ADC325306 PUSH1 0x1 PUSH0 PUSH2 0x100 EXP DUP2 SLOAD DUP2 PUSH20 0xFFFFFFFFFFFFFFFFFFFFFFFFFFFFFFFFFFFFFFFF MUL NOT AND SWAP1 DUP4 PUSH20 0xFFFFFFFFFFFFFFFFFFFFFFFFFFFFFFFFFFFFFFFF AND MUL OR SWAP1 SSTORE POP PUSH2 0x8BC DUP1 PUSH2 0x74 PUSH0 CODECOPY PUSH0 RETURN INVALID PUSH1 0x80 PUSH1 0x40 MSTORE PUSH1 0x4 CALLDATASIZE LT PUSH2 0x6F JUMPI PUSH0 CALLDATALOAD PUSH1 0xE0 SHR DUP1 PUSH4 0x98D5FDCA GT PUSH2 0x4D JUMPI DUP1 PUSH4 0x98D5FDCA EQ PUSH2 0x115 JUMPI DUP1 PUSH4 0xB60D4288 EQ PUSH2 0x13F JUMPI DUP1 PUSH4 0xD63A6CCD EQ PUSH2 0x149 JUMPI DUP1 PUSH4 0xDC0D3DFF EQ PUSH2 0x173 JUMPI PUSH2 0x6F JUMP JUMPDEST DUP1 PUSH4 0xD8E6E2C EQ PUSH2 0x73 JUMPI DUP1 PUSH4 0x3E47D6F3 EQ PUSH2 0x9D JUMPI DUP1 PUSH4 0x3E8CDCDA EQ PUSH2 0xD9 JUMPI JUMPDEST PUSH0 DUP1 REVERT JUMPDEST CALLVALUE DUP1 ISZERO PUSH2 0x7E JUMPI PUSH0 DUP1 REVERT JUMPDEST POP PUSH2 0x87 PUSH2 0x1AF JUMP JUMPDEST PUSH1 0x40 MLOAD PUSH2 0x94 SWAP2 SWAP1 PUSH2 0x486 JUMP JUMPDEST PUSH1 0x40 MLOAD DUP1 SWAP2 SUB SWAP1 RETURN JUMPDEST CALLVALUE DUP1 ISZERO PUSH2 0xA8 JUMPI PUSH0 DUP1 REVERT JUMPDEST POP PUSH2 0xC3 PUSH1 0x4 DUP1 CALLDATASIZE SUB DUP2 ADD SWAP1 PUSH2 0xBE SWAP2 SWAP1 PUSH2 0x4FD JUMP JUMPDEST PUSH2 0x248 JUMP JUMPDEST PUSH1 0x40 MLOAD PUSH2 0xD0 SWAP2 SWAP1 PUSH2 0x486 JUMP JUMPDEST PUSH1 0x40 MLOAD DUP1 SWAP2 SUB SWAP1 RETURN JUMPDEST CALLVALUE DUP1 ISZERO PUSH2 0xE4 JUMPI PUSH0 DUP1 REVERT JUMPDEST POP PUSH2 0xFF PUSH1 0x4 DUP1 CALLDATASIZE SUB DUP2 ADD SWAP1 PUSH2 0xFA SWAP2 SWAP1 PUSH2 0x552 JUMP JUMPDEST PUSH2 0x25D JUMP JUMPDEST PUSH1 0x40 MLOAD PUSH2 0x10C SWAP2 SWAP1 PUSH2 0x486 JUMP JUMPDEST PUSH1 0x40 MLOAD DUP1 SWAP2 SUB SWAP1 RETURN JUMPDEST CALLVALUE DUP1 ISZERO PUSH2 0x120 JUMPI PUSH0 DUP1 REVERT JUMPDEST POP PUSH2 0x129 PUSH2 0x290 JUMP JUMPDEST PUSH1 0x40 MLOAD PUSH2 0x136 SWAP2 SWAP1 PUSH2 0x486 JUMP JUMPDEST PUSH1 0x40 MLOAD DUP1 SWAP2 SUB SWAP1 RETURN JUMPDEST PUSH2 0x147 PUSH2 0x33F JUMP JUMPDEST STOP JUMPDEST CALLVALUE DUP1 ISZERO PUSH2 0x154 JUMPI PUSH0 DUP1 REVERT JUMPDEST POP PUSH2 0x15D PUSH2 0x42E JUMP JUMPDEST PUSH1 0x40 MLOAD PUSH2 0x16A SWAP2 SWAP1 PUSH2 0x486 JUMP JUMPDEST PUSH1 0x40 MLOAD DUP1 SWAP2 SUB SWAP1 RETURN JUMPDEST CALLVALUE DUP1 ISZERO PUSH2 0x17E JUMPI PUSH0 DUP1 REVERT JUMPDEST POP PUSH2 0x199 PUSH1 0x4 DUP1 CALLDATASIZE SUB DUP2 ADD SWAP1 PUSH2 0x194 SWAP2 SWAP1 PUSH2 0x552 JUMP JUMPDEST PUSH2 0x433 JUMP JUMPDEST PUSH1 0x40 MLOAD PUSH2 0x1A6 SWAP2 SWAP1 PUSH2 0x58C JUMP JUMPDEST PUSH1 0x40 MLOAD DUP1 SWAP2 SUB SWAP1 RETURN JUMPDEST PUSH0 DUP1 PUSH1 0x1 PUSH0 SWAP1 SLOAD SWAP1 PUSH2 0x100 EXP SWAP1 DIV PUSH20 0xFFFFFFFFFFFFFFFFFFFFFFFFFFFFFFFFFFFFFFFF AND SWAP1 POP DUP1 PUSH20 0xFFFFFFFFFFFFFFFFFFFFFFFFFFFFFFFFFFFFFFFF AND PUSH4 0x54FD4D50 PUSH1 0x40 MLOAD DUP2 PUSH4 0xFFFFFFFF AND PUSH1 0xE0 SHL DUP2 MSTORE PUSH1 0x4 ADD PUSH1 0x20 PUSH1 0x40 MLOAD DUP1 DUP4 SUB DUP2 DUP7 GAS STATICCALL ISZERO DUP1 ISZERO PUSH2 0x21E JUMPI RETURNDATASIZE PUSH0 DUP1 RETURNDATACOPY RETURNDATASIZE PUSH0 REVERT JUMPDEST POP POP POP POP PUSH1 0x40 MLOAD RETURNDATASIZE PUSH1 0x1F NOT PUSH1 0x1F DUP3 ADD AND DUP3 ADD DUP1 PUSH1 0x40 MSTORE POP DUP2 ADD SWAP1 PUSH2 0x242 SWAP2 SWAP1 PUSH2 0x5B9 JUMP JUMPDEST SWAP2 POP POP SWAP1 JUMP JUMPDEST PUSH1 0x3 PUSH1 0x20 MSTORE DUP1 PUSH0 MSTORE PUSH1 0x40 PUSH0 KECCAK256 PUSH0 SWAP2 POP SWAP1 POP SLOAD DUP2 JUMP JUMPDEST PUSH0 DUP1 PUSH2 0x267 PUSH2 0x290 JUMP JUMPDEST SWAP1 POP PUSH8 0xDE0B6B3A7640000 DUP4 DUP3 PUSH2 0x27E SWAP2 SWAP1 PUSH2 0x611 JUMP JUMPDEST PUSH2 0x288 SWAP2 SWAP1 PUSH2 0x67F JUMP JUMPDEST SWAP2 POP POP SWAP2 SWAP1 POP JUMP JUMPDEST PUSH0 DUP1 PUSH1 0x1 PUSH0 SWAP1 SLOAD SWAP1 PUSH2 0x100 EXP SWAP1 DIV PUSH20 0xFFFFFFFFFFFFFFFFFFFFFFFFFFFFFFFFFFFFFFFF AND PUSH20 0xFFFFFFFFFFFFFFFFFFFFFFFFFFFFFFFFFFFFFFFF AND PUSH4 0xFEAF968C PUSH1 0x40 MLOAD DUP2 PUSH4 0xFFFFFFFF AND PUSH1 0xE0 SHL DUP2 MSTORE PUSH1 0x4 ADD PUSH1 0xA0 PUSH1 0x40 MLOAD DUP1 DUP4 SUB DUP2 DUP7 GAS STATICCALL ISZERO DUP1 ISZERO PUSH2 0x2FC JUMPI RETURNDATASIZE PUSH0 DUP1 RETURNDATACOPY RETURNDATASIZE PUSH0 REVERT JUMPDEST POP POP POP POP PUSH1 0x40 MLOAD RETURNDATASIZE PUSH1 0x1F NOT PUSH1 0x1F DUP3 ADD AND DUP3 ADD DUP1 PUSH1 0x40 MSTORE POP DUP2 ADD SWAP1 PUSH2 0x320 SWAP2 SWAP1 PUSH2 0x721 JUMP JUMPDEST POP POP POP SWAP2 POP POP PUSH5 0x2540BE400 DUP2 PUSH2 0x337 SWAP2 SWAP1 PUSH2 0x798 JUMP JUMPDEST POP DUP1 SWAP2 POP POP SWAP1 JUMP JUMPDEST PUSH0 SLOAD PUSH2 0x34A CALLVALUE PUSH2 0x25D JUMP JUMPDEST GT PUSH2 0x38A JUMPI PUSH1 0x40 MLOAD PUSH32 0x8C379A000000000000000000000000000000000000000000000000000000000 DUP2 MSTORE PUSH1 0x4 ADD PUSH2 0x381 SWAP1 PUSH2 0x868 JUMP JUMPDEST PUSH1 0x40 MLOAD DUP1 SWAP2 SUB SWAP1 REVERT JUMPDEST PUSH1 0x2 CALLER SWAP1 DUP1 PUSH1 0x1 DUP2 SLOAD ADD DUP1 DUP3 SSTORE DUP1 SWAP2 POP POP PUSH1 0x1 SWAP1 SUB SWAP1 PUSH0 MSTORE PUSH1 0x20 PUSH0 KECCAK256 ADD PUSH0 SWAP1 SWAP2 SWAP1 SWAP2 SWAP1 SWAP2 PUSH2 0x100 EXP DUP2 SLOAD DUP2 PUSH20 0xFFFFFFFFFFFFFFFFFFFFFFFFFFFFFFFFFFFFFFFF MUL NOT AND SWAP1 DUP4 PUSH20 0xFFFFFFFFFFFFFFFFFFFFFFFFFFFFFFFFFFFFFFFF AND MUL OR SWAP1 SSTORE POP CALLVALUE PUSH1 0x3 PUSH0 CALLER PUSH20 0xFFFFFFFFFFFFFFFFFFFFFFFFFFFFFFFFFFFFFFFF AND PUSH20 0xFFFFFFFFFFFFFFFFFFFFFFFFFFFFFFFFFFFFFFFF AND DUP2 MSTORE PUSH1 0x20 ADD SWAP1 DUP2 MSTORE PUSH1 0x20 ADD PUSH0 KECCAK256 DUP2 SWAP1 SSTORE POP JUMP JUMPDEST PUSH0 SLOAD DUP2 JUMP JUMPDEST PUSH1 0x2 DUP2 DUP2 SLOAD DUP2 LT PUSH2 0x442 JUMPI PUSH0 DUP1 REVERT JUMPDEST SWAP1 PUSH0 MSTORE PUSH1 0x20 PUSH0 KECCAK256 ADD PUSH0 SWAP2 POP SLOAD SWAP1 PUSH2 0x100 EXP SWAP1 DIV PUSH20 0xFFFFFFFFFFFFFFFFFFFFFFFFFFFFFFFFFFFFFFFF AND DUP2 JUMP JUMPDEST PUSH0 DUP2 SWAP1 POP SWAP2 SWAP1 POP JUMP JUMPDEST PUSH2 0x480 DUP2 PUSH2 0x46E JUMP JUMPDEST DUP3 MSTORE POP POP JUMP JUMPDEST PUSH0 PUSH1 0x20 DUP3 ADD SWAP1 POP PUSH2 0x499 PUSH0 DUP4 ADD DUP5 PUSH2 0x477 JUMP JUMPDEST SWAP3 SWAP2 POP POP JUMP JUMPDEST PUSH0 DUP1 REVERT JUMPDEST PUSH0 PUSH20 0xFFFFFFFFFFFFFFFFFFFFFFFFFFFFFFFFFFFFFFFF DUP3 AND SWAP1 POP SWAP2 SWAP1 POP JUMP JUMPDEST PUSH0 PUSH2 0x4CC DUP3 PUSH2 0x4A3 JUMP JUMPDEST SWAP1 POP SWAP2 SWAP1 POP JUMP JUMPDEST PUSH2 0x4DC DUP2 PUSH2 0x4C2 JUMP JUMPDEST DUP2 EQ PUSH2 0x4E6 JUMPI PUSH0 DUP1 REVERT JUMPDEST POP JUMP JUMPDEST PUSH0 DUP2 CALLDATALOAD SWAP1 POP PUSH2 0x4F7 DUP2 PUSH2 0x4D3 JUMP JUMPDEST SWAP3 SWAP2 POP POP JUMP JUMPDEST PUSH0 PUSH1 0x20 DUP3 DUP5 SUB SLT ISZERO PUSH2 0x512 JUMPI PUSH2 0x511 PUSH2 0x49F JUMP JUMPDEST JUMPDEST PUSH0 PUSH2 0x51F DUP5 DUP3 DUP6 ADD PUSH2 0x4E9 JUMP JUMPDEST SWAP2 POP POP SWAP3 SWAP2 POP POP JUMP JUMPDEST PUSH2 0x531 DUP2 PUSH2 0x46E JUMP JUMPDEST DUP2 EQ PUSH2 0x53B JUMPI PUSH0 DUP1 REVERT JUMPDEST POP JUMP JUMPDEST PUSH0 DUP2 CALLDATALOAD SWAP1 POP PUSH2 0x54C DUP2 PUSH2 0x528 JUMP JUMPDEST SWAP3 SWAP2 POP POP JUMP JUMPDEST PUSH0 PUSH1 0x20 DUP3 DUP5 SUB SLT ISZERO PUSH2 0x567 JUMPI PUSH2 0x566 PUSH2 0x49F JUMP JUMPDEST JUMPDEST PUSH0 PUSH2 0x574 DUP5 DUP3 DUP6 ADD PUSH2 0x53E JUMP JUMPDEST SWAP2 POP POP SWAP3 SWAP2 POP POP JUMP JUMPDEST PUSH2 0x586 DUP2 PUSH2 0x4C2 JUMP JUMPDEST DUP3 MSTORE POP POP JUMP JUMPDEST PUSH0 PUSH1 0x20 DUP3 ADD SWAP1 POP PUSH2 0x59F PUSH0 DUP4 ADD DUP5 PUSH2 0x57D JUMP JUMPDEST SWAP3 SWAP2 POP POP JUMP JUMPDEST PUSH0 DUP2 MLOAD SWAP1 POP PUSH2 0x5B3 DUP2 PUSH2 0x528 JUMP JUMPDEST SWAP3 SWAP2 POP POP JUMP JUMPDEST PUSH0 PUSH1 0x20 DUP3 DUP5 SUB SLT ISZERO PUSH2 0x5CE JUMPI PUSH2 0x5CD PUSH2 0x49F JUMP JUMPDEST JUMPDEST PUSH0 PUSH2 0x5DB DUP5 DUP3 DUP6 ADD PUSH2 0x5A5 JUMP JUMPDEST SWAP2 POP POP SWAP3 SWAP2 POP POP JUMP JUMPDEST PUSH32 0x4E487B7100000000000000000000000000000000000000000000000000000000 PUSH0 MSTORE PUSH1 0x11 PUSH1 0x4 MSTORE PUSH1 0x24 PUSH0 REVERT JUMPDEST PUSH0 PUSH2 0x61B DUP3 PUSH2 0x46E JUMP JUMPDEST SWAP2 POP PUSH2 0x626 DUP4 PUSH2 0x46E JUMP JUMPDEST SWAP3 POP DUP3 DUP3 MUL PUSH2 0x634 DUP2 PUSH2 0x46E JUMP JUMPDEST SWAP2 POP DUP3 DUP3 DIV DUP5 EQ DUP4 ISZERO OR PUSH2 0x64B JUMPI PUSH2 0x64A PUSH2 0x5E4 JUMP JUMPDEST JUMPDEST POP SWAP3 SWAP2 POP POP JUMP JUMPDEST PUSH32 0x4E487B7100000000000000000000000000000000000000000000000000000000 PUSH0 MSTORE PUSH1 0x12 PUSH1 0x4 MSTORE PUSH1 0x24 PUSH0 REVERT JUMPDEST PUSH0 PUSH2 0x689 DUP3 PUSH2 0x46E JUMP JUMPDEST SWAP2 POP PUSH2 0x694 DUP4 PUSH2 0x46E JUMP JUMPDEST SWAP3 POP DUP3 PUSH2 0x6A4 JUMPI PUSH2 0x6A3 PUSH2 0x652 JUMP JUMPDEST JUMPDEST DUP3 DUP3 DIV SWAP1 POP SWAP3 SWAP2 POP POP JUMP JUMPDEST PUSH0 PUSH10 0xFFFFFFFFFFFFFFFFFFFF DUP3 AND SWAP1 POP SWAP2 SWAP1 POP JUMP JUMPDEST PUSH2 0x6CD DUP2 PUSH2 0x6AF JUMP JUMPDEST DUP2 EQ PUSH2 0x6D7 JUMPI PUSH0 DUP1 REVERT JUMPDEST POP JUMP JUMPDEST PUSH0 DUP2 MLOAD SWAP1 POP PUSH2 0x6E8 DUP2 PUSH2 0x6C4 JUMP JUMPDEST SWAP3 SWAP2 POP POP JUMP JUMPDEST PUSH0 DUP2 SWAP1 POP SWAP2 SWAP1 POP JUMP JUMPDEST PUSH2 0x700 DUP2 PUSH2 0x6EE JUMP JUMPDEST DUP2 EQ PUSH2 0x70A JUMPI PUSH0 DUP1 REVERT JUMPDEST POP JUMP JUMPDEST PUSH0 DUP2 MLOAD SWAP1 POP PUSH2 0x71B DUP2 PUSH2 0x6F7 JUMP JUMPDEST SWAP3 SWAP2 POP POP JUMP JUMPDEST PUSH0 DUP1 PUSH0 DUP1 PUSH0 PUSH1 0xA0 DUP7 DUP9 SUB SLT ISZERO PUSH2 0x73A JUMPI PUSH2 0x739 PUSH2 0x49F JUMP JUMPDEST JUMPDEST PUSH0 PUSH2 0x747 DUP9 DUP3 DUP10 ADD PUSH2 0x6DA JUMP JUMPDEST SWAP6 POP POP PUSH1 0x20 PUSH2 0x758 DUP9 DUP3 DUP10 ADD PUSH2 0x70D JUMP JUMPDEST SWAP5 POP POP PUSH1 0x40 PUSH2 0x769 DUP9 DUP3 DUP10 ADD PUSH2 0x5A5 JUMP JUMPDEST SWAP4 POP POP PUSH1 0x60 PUSH2 0x77A DUP9 DUP3 DUP10 ADD PUSH2 0x5A5 JUMP JUMPDEST SWAP3 POP POP PUSH1 0x80 PUSH2 0x78B DUP9 DUP3 DUP10 ADD PUSH2 0x6DA JUMP JUMPDEST SWAP2 POP POP SWAP3 SWAP6 POP SWAP3 SWAP6 SWAP1 SWAP4 POP JUMP JUMPDEST PUSH0 PUSH2 0x7A2 DUP3 PUSH2 0x6EE JUMP JUMPDEST SWAP2 POP PUSH2 0x7AD DUP4 PUSH2 0x6EE JUMP JUMPDEST SWAP3 POP DUP3 DUP3 MUL PUSH2 0x7BB DUP2 PUSH2 0x6EE JUMP JUMPDEST SWAP2 POP PUSH32 0x8000000000000000000000000000000000000000000000000000000000000000 DUP5 EQ PUSH0 DUP5 SLT AND ISZERO PUSH2 0x7F2 JUMPI PUSH2 0x7F1 PUSH2 0x5E4 JUMP JUMPDEST JUMPDEST DUP3 DUP3 SDIV DUP5 EQ DUP4 ISZERO OR PUSH2 0x807 JUMPI PUSH2 0x806 PUSH2 0x5E4 JUMP JUMPDEST JUMPDEST POP SWAP3 SWAP2 POP POP JUMP JUMPDEST PUSH0 DUP3 DUP3 MSTORE PUSH1 0x20 DUP3 ADD SWAP1 POP SWAP3 SWAP2 POP POP JUMP JUMPDEST PUSH32 0x6572726F722C206D757374206265203165746800000000000000000000000000 PUSH0 DUP3 ADD MSTORE POP JUMP JUMPDEST PUSH0 PUSH2 0x852 PUSH1 0x13 DUP4 PUSH2 0x80E JUMP JUMPDEST SWAP2 POP PUSH2 0x85D DUP3 PUSH2 0x81E JUMP JUMPDEST PUSH1 0x20 DUP3 ADD SWAP1 POP SWAP2 SWAP1 POP JUMP JUMPDEST PUSH0 PUSH1 0x20 DUP3 ADD SWAP1 POP DUP2 DUP2 SUB PUSH0 DUP4 ADD MSTORE PUSH2 0x87F DUP2 PUSH2 0x846 JUMP JUMPDEST SWAP1 POP SWAP2 SWAP1 POP JUMP INVALID LOG2 PUSH5 0x6970667358 0x22 SLT KECCAK256 DUP7 RETURNDATACOPY SDIV 0xE8 SELFBALANCE 0xAB 0x4C ORIGIN 0x2E SHL 0x2B 0xD9 DELEGATECALL SWAP11 0xEC 0xFB ADDMOD 0x4E PUSH6 0xA674EB5C85F5 SWAP11 DUP5 0x21 CALLER DUP14 NUMBER PUSH12 0x64736F6C634300081A003300 "
				},
				"gasEstimates": {
					"creation": {
						"codeDepositCost": "447200",
						"executionCost": "46849",
						"totalCost": "494049"
					},
					"external": {
						"addressToAmountFunded(address)": "2825",
						"fund()": "infinite",
						"funders(uint256)": "5010",
						"getConvertionRate(uint256)": "infinite",
						"getPrice()": "infinite",
						"getVersion()": "infinite",
						"usd()": "2468"
					}
				},
				"methodIdentifiers": {
					"addressToAmountFunded(address)": "3e47d6f3",
					"fund()": "b60d4288",
					"funders(uint256)": "dc0d3dff",
					"getConvertionRate(uint256)": "3e8cdcda",
					"getPrice()": "98d5fdca",
					"getVersion()": "0d8e6e2c",
					"usd()": "d63a6ccd"
				}
			},
			"storageLayout": {
				"storage": [
					{
						"astId": 52,
						"contract": "contracts/FundMe.sol:FundMe",
						"label": "usd",
						"offset": 0,
						"slot": "0",
						"type": "t_uint256"
					},
					{
						"astId": 55,
						"contract": "contracts/FundMe.sol:FundMe",
						"label": "dataFeed",
						"offset": 0,
						"slot": "1",
						"type": "t_contract(AggregatorV3Interface)45"
					},
					{
						"astId": 58,
						"contract": "contracts/FundMe.sol:FundMe",
						"label": "funders",
						"offset": 0,
						"slot": "2",
						"type": "t_array(t_address)dyn_storage"
					},
					{
						"astId": 62,
						"contract": "contracts/FundMe.sol:FundMe",
						"label": "addressToAmountFunded",
						"offset": 0,
						"slot": "3",
						"type": "t_mapping(t_address,t_uint256)"
					}
				],
				"types": {
					"t_address": {
						"encoding": "inplace",
						"label": "address",
						"numberOfBytes": "20"
					},
					"t_array(t_address)dyn_storage": {
						"base": "t_address",
						"encoding": "dynamic_array",
						"label": "address[]",
						"numberOfBytes": "32"
					},
					"t_contract(AggregatorV3Interface)45": {
						"encoding": "inplace",
						"label": "contract AggregatorV3Interface",
						"numberOfBytes": "20"
					},
					"t_mapping(t_address,t_uint256)": {
						"encoding": "mapping",
						"key": "t_address",
						"label": "mapping(address => uint256)",
						"numberOfBytes": "32",
						"value": "t_uint256"
					},
					"t_uint256": {
						"encoding": "inplace",
						"label": "uint256",
						"numberOfBytes": "32"
					}
				}
			},
			"userdoc": {
				"kind": "user",
				"methods": {},
				"version": 1
			}
		}
	}
}